8=FIX.4.2|9=68|35=A|34=1|49=CLIENT|52=20140217-15:56:02.939|56=SERVER|108=30|141=Y|10=239|8=FIX.4.2|9=118|35=D|34=2|49=CLIENT|52=20140217-15:56:08.964|56=SERVER|11=1|21=1|38=100|40=C|54=1|55=EUR/USD|60=20140217-15:56:08.948|10=231|8=FIX.4.2|9=55|35=5|34=3|49=CLIENT|52=20140217-15:56:20.917|56=SERVER|10=118|