8=FIX.4.2|9=67|35=A|34=1|49=SERVER|52=20140217-15:56:02.957|56=CLIENT|98=0|108=20|10=159|8=FIX.4.2|9=103|35=3|34=2|49=SERVER|52=20140217-15:56:02.966|56=CLIENT|45=1|58=Required tag missing|371=98|372=A|373=1|10=076|8=FIX.4.2|9=129|35=8|34=3|49=SERVER|52=20140217-15:56:08.990|56=CLIENT|6=1.235|14=100|17=1|20=0|37=1|39=2|44=1.234|54=1|55=EUR/USD|150=2|151=100|10=064|8=FIX.4.2|9=55|35=5|34=4|49=SERVER|52=20140217-15:56:20.919|56=CLIENT|10=121|